{
  "_format": "hh-sol-artifact-1",
  "contractName": "SEANNFT",
  "sourceName": "contracts/cheat721.sol",
  "abi": [
    {
      "inputs": [
        {
          "internalType": "uint256",
          "name": "_saleStartTime",
          "type": "uint256"
        }
      ],
      "stateMutability": "nonpayable",
      "type": "constructor"
    },
    {
      "anonymous": false,
      "inputs": [
        {
          "indexed": true,
          "internalType": "address",
          "name": "owner",
          "type": "address"
        },
        {
          "indexed": true,
          "internalType": "address",
          "name": "approved",
          "type": "address"
        },
        {
          "indexed": true,
          "internalType": "uint256",
          "name": "tokenId",
          "type": "uint256"
        }
      ],
      "name": "Approval",
      "type": "event"
    },
    {
      "anonymous": false,
      "inputs": [
        {
          "indexed": true,
          "internalType": "address",
          "name": "owner",
          "type": "address"
        },
        {
          "indexed": true,
          "internalType": "address",
          "name": "operator",
          "type": "address"
        },
        {
          "indexed": false,
          "internalType": "bool",
          "name": "approved",
          "type": "bool"
        }
      ],
      "name": "ApprovalForAll",
      "type": "event"
    },
    {
      "anonymous": false,
      "inputs": [
        {
          "indexed": true,
          "internalType": "address",
          "name": "previousOwner",
          "type": "address"
        },
        {
          "indexed": true,
          "internalType": "address",
          "name": "newOwner",
          "type": "address"
        }
      ],
      "name": "OwnershipTransferred",
      "type": "event"
    },
    {
      "anonymous": false,
      "inputs": [
        {
          "indexed": true,
          "internalType": "address",
          "name": "from",
          "type": "address"
        },
        {
          "indexed": true,
          "internalType": "address",
          "name": "to",
          "type": "address"
        },
        {
          "indexed": true,
          "internalType": "uint256",
          "name": "tokenId",
          "type": "uint256"
        }
      ],
      "name": "Transfer",
      "type": "event"
    },
    {
      "inputs": [
        {
          "internalType": "address",
          "name": "to",
          "type": "address"
        },
        {
          "internalType": "uint256",
          "name": "tokenId",
          "type": "uint256"
        }
      ],
      "name": "approve",
      "outputs": [],
      "stateMutability": "nonpayable",
      "type": "function"
    },
    {
      "inputs": [
        {
          "internalType": "address",
          "name": "owner",
          "type": "address"
        }
      ],
      "name": "balanceOf",
      "outputs": [
        {
          "internalType": "uint256",
          "name": "",
          "type": "uint256"
        }
      ],
      "stateMutability": "view",
      "type": "function"
    },
    {
      "inputs": [],
      "name": "balanceOfMine",
      "outputs": [
        {
          "internalType": "uint256",
          "name": "",
          "type": "uint256"
        }
      ],
      "stateMutability": "view",
      "type": "function"
    },
    {
      "inputs": [
        {
          "internalType": "uint256",
          "name": "tokenId",
          "type": "uint256"
        }
      ],
      "name": "getApproved",
      "outputs": [
        {
          "internalType": "address",
          "name": "",
          "type": "address"
        }
      ],
      "stateMutability": "view",
      "type": "function"
    },
    {
      "inputs": [],
      "name": "getAvailableSupply",
      "outputs": [
        {
          "internalType": "uint256",
          "name": "",
          "type": "uint256"
        }
      ],
      "stateMutability": "view",
      "type": "function"
    },
    {
      "inputs": [
        {
          "internalType": "address",
          "name": "owner",
          "type": "address"
        },
        {
          "internalType": "address",
          "name": "operator",
          "type": "address"
        }
      ],
      "name": "isApprovedForAll",
      "outputs": [
        {
          "internalType": "bool",
          "name": "",
          "type": "bool"
        }
      ],
      "stateMutability": "view",
      "type": "function"
    },
    {
      "inputs": [],
      "name": "maxSupply",
      "outputs": [
        {
          "internalType": "uint256",
          "name": "",
          "type": "uint256"
        }
      ],
      "stateMutability": "view",
      "type": "function"
    },
    {
      "inputs": [],
      "name": "mint",
      "outputs": [],
      "stateMutability": "payable",
      "type": "function"
    },
    {
      "inputs": [],
      "name": "mintPrice",
      "outputs": [
        {
          "internalType": "uint256",
          "name": "",
          "type": "uint256"
        }
      ],
      "stateMutability": "view",
      "type": "function"
    },
    {
      "inputs": [],
      "name": "name",
      "outputs": [
        {
          "internalType": "string",
          "name": "",
          "type": "string"
        }
      ],
      "stateMutability": "view",
      "type": "function"
    },
    {
      "inputs": [],
      "name": "owner",
      "outputs": [
        {
          "internalType": "address",
          "name": "",
          "type": "address"
        }
      ],
      "stateMutability": "view",
      "type": "function"
    },
    {
      "inputs": [
        {
          "internalType": "uint256",
          "name": "tokenId",
          "type": "uint256"
        }
      ],
      "name": "ownerOf",
      "outputs": [
        {
          "internalType": "address",
          "name": "",
          "type": "address"
        }
      ],
      "stateMutability": "view",
      "type": "function"
    },
    {
      "inputs": [],
      "name": "renounceOwnership",
      "outputs": [],
      "stateMutability": "nonpayable",
      "type": "function"
    },
    {
      "inputs": [
        {
          "internalType": "address",
          "name": "from",
          "type": "address"
        },
        {
          "internalType": "address",
          "name": "to",
          "type": "address"
        },
        {
          "internalType": "uint256",
          "name": "tokenId",
          "type": "uint256"
        }
      ],
      "name": "safeTransferFrom",
      "outputs": [],
      "stateMutability": "nonpayable",
      "type": "function"
    },
    {
      "inputs": [
        {
          "internalType": "address",
          "name": "from",
          "type": "address"
        },
        {
          "internalType": "address",
          "name": "to",
          "type": "address"
        },
        {
          "internalType": "uint256",
          "name": "tokenId",
          "type": "uint256"
        },
        {
          "internalType": "bytes",
          "name": "_data",
          "type": "bytes"
        }
      ],
      "name": "safeTransferFrom",
      "outputs": [],
      "stateMutability": "nonpayable",
      "type": "function"
    },
    {
      "inputs": [],
      "name": "saleStartTime",
      "outputs": [
        {
          "internalType": "uint256",
          "name": "",
          "type": "uint256"
        }
      ],
      "stateMutability": "view",
      "type": "function"
    },
    {
      "inputs": [
        {
          "internalType": "address",
          "name": "operator",
          "type": "address"
        },
        {
          "internalType": "bool",
          "name": "approved",
          "type": "bool"
        }
      ],
      "name": "setApprovalForAll",
      "outputs": [],
      "stateMutability": "nonpayable",
      "type": "function"
    },
    {
      "inputs": [
        {
          "internalType": "bytes4",
          "name": "interfaceId",
          "type": "bytes4"
        }
      ],
      "name": "supportsInterface",
      "outputs": [
        {
          "internalType": "bool",
          "name": "",
          "type": "bool"
        }
      ],
      "stateMutability": "view",
      "type": "function"
    },
    {
      "inputs": [],
      "name": "symbol",
      "outputs": [
        {
          "internalType": "string",
          "name": "",
          "type": "string"
        }
      ],
      "stateMutability": "view",
      "type": "function"
    },
    {
      "inputs": [
        {
          "internalType": "uint256",
          "name": "index",
          "type": "uint256"
        }
      ],
      "name": "tokenByIndex",
      "outputs": [
        {
          "internalType": "uint256",
          "name": "",
          "type": "uint256"
        }
      ],
      "stateMutability": "view",
      "type": "function"
    },
    {
      "inputs": [
        {
          "internalType": "address",
          "name": "owner",
          "type": "address"
        },
        {
          "internalType": "uint256",
          "name": "index",
          "type": "uint256"
        }
      ],
      "name": "tokenOfOwnerByIndex",
      "outputs": [
        {
          "internalType": "uint256",
          "name": "",
          "type": "uint256"
        }
      ],
      "stateMutability": "view",
      "type": "function"
    },
    {
      "inputs": [
        {
          "internalType": "uint256",
          "name": "tokenId",
          "type": "uint256"
        }
      ],
      "name": "tokenURI",
      "outputs": [
        {
          "internalType": "string",
          "name": "",
          "type": "string"
        }
      ],
      "stateMutability": "view",
      "type": "function"
    },
    {
      "inputs": [],
      "name": "totalSupply",
      "outputs": [
        {
          "internalType": "uint256",
          "name": "",
          "type": "uint256"
        }
      ],
      "stateMutability": "view",
      "type": "function"
    },
    {
      "inputs": [
        {
          "internalType": "address",
          "name": "from",
          "type": "address"
        },
        {
          "internalType": "address",
          "name": "to",
          "type": "address"
        },
        {
          "internalType": "uint256",
          "name": "tokenId",
          "type": "uint256"
        }
      ],
      "name": "transferFrom",
      "outputs": [],
      "stateMutability": "nonpayable",
      "type": "function"
    },
    {
      "inputs": [
        {
          "internalType": "address",
          "name": "newOwner",
          "type": "address"
        }
      ],
      "name": "transferOwnership",
      "outputs": [],
      "stateMutability": "nonpayable",
      "type": "function"
    }
  ],
  "bytecode": "0x6080604052670de0b6b3a7640000600c556001600d553480156200002257600080fd5b5060405162003c3e38038062003c3e8339818101604052810190620000489190620002ab565b6040518060400160405280600781526020017f5345414e4e4654000000000000000000000000000000000000000000000000008152506040518060400160405280600481526020017f534e4654000000000000000000000000000000000000000000000000000000008152508160009080519060200190620000cc929190620001e4565b508060019080519060200190620000e5929190620001e4565b50505062000108620000fc6200011660201b60201c565b6200011e60201b60201c565b80600b819055505062000360565b600033905090565b6000600a60009054906101000a900473ffffffffffffffffffffffffffffffffffffffff16905081600a60006101000a81548173ffffffffffffffffffffffffffffffffffffffff021916908373ffffffffffffffffffffffffffffffffffffffff1602179055508173ffffffffffffffffffffffffffffffffffffffff168173ffffffffffffffffffffffffffffffffffffffff167f8be0079c531659141344cd1fd0a4f28419497f9722a3daafe3b4186f6b6457e060405160405180910390a35050565b828054620001f290620002e1565b90600052602060002090601f01602090048101928262000216576000855562000262565b82601f106200023157805160ff191683800117855562000262565b8280016001018555821562000262579182015b828111156200026157825182559160200191906001019062000244565b5b50905062000271919062000275565b5090565b5b808211156200029057600081600090555060010162000276565b5090565b600081519050620002a58162000346565b92915050565b600060208284031215620002be57600080fd5b6000620002ce8482850162000294565b91505092915050565b6000819050919050565b60006002820490506001821680620002fa57607f821691505b6020821081141562000311576200031062000317565b5b50919050565b7f4e487b7100000000000000000000000000000000000000000000000000000000600052602260045260246000fd5b6200035181620002d7565b81146200035d57600080fd5b50565b6138ce80620003706000396000f3fe6080604052600436106101665760003560e01c80636352211e116100d1578063a22cb4651161008a578063c87b56dd11610064578063c87b56dd1461051f578063d5abeb011461055c578063e985e9c514610587578063f2fde38b146105c457610166565b8063a22cb465146104a2578063b88d4fde146104cb578063c167d1cd146104f457610166565b80636352211e146103905780636817c76c146103cd57806370a08231146103f8578063715018a6146104355780638da5cb5b1461044c57806395d89b411461047757610166565b806318160ddd1161012357806318160ddd1461026e5780631cbaee2d1461029957806323b872dd146102c45780632f745c59146102ed57806342842e0e1461032a5780634f6ccce71461035357610166565b806301ffc9a71461016b57806306fdde03146101a8578063081812fc146101d3578063095ea7b3146102105780631249c58b146102395780631459cef414610243575b600080fd5b34801561017757600080fd5b50610192600480360381019061018d91906126d8565b6105ed565b60405161019f9190612bb0565b60405180910390f35b3480156101b457600080fd5b506101bd6105ff565b6040516101ca9190612bcb565b60405180910390f35b3480156101df57600080fd5b506101fa60048036038101906101f5919061272a565b610691565b6040516102079190612b49565b60405180910390f35b34801561021c57600080fd5b506102376004803603810190610232919061269c565b610716565b005b61024161082e565b005b34801561024f57600080fd5b5061025861092d565b6040516102659190612ead565b60405180910390f35b34801561027a57600080fd5b506102836109ac565b6040516102909190612ead565b60405180910390f35b3480156102a557600080fd5b506102ae6109b9565b6040516102bb9190612ead565b60405180910390f35b3480156102d057600080fd5b506102eb60048036038101906102e69190612596565b6109bf565b005b3480156102f957600080fd5b50610314600480360381019061030f919061269c565b610a1f565b6040516103219190612ead565b60405180910390f35b34801561033657600080fd5b50610351600480360381019061034c9190612596565b610ac4565b005b34801561035f57600080fd5b5061037a6004803603810190610375919061272a565b610ae4565b6040516103879190612ead565b60405180910390f35b34801561039c57600080fd5b506103b760048036038101906103b2919061272a565b610b7b565b6040516103c49190612b49565b60405180910390f35b3480156103d957600080fd5b506103e2610c2d565b6040516103ef9190612ead565b60405180910390f35b34801561040457600080fd5b5061041f600480360381019061041a9190612531565b610c33565b60405161042c9190612ead565b60405180910390f35b34801561044157600080fd5b5061044a610ceb565b005b34801561045857600080fd5b50610461610d73565b60405161046e9190612b49565b60405180910390f35b34801561048357600080fd5b5061048c610d9d565b6040516104999190612bcb565b60405180910390f35b3480156104ae57600080fd5b506104c960048036038101906104c49190612660565b610e2f565b005b3480156104d757600080fd5b506104f260048036038101906104ed91906125e5565b610e45565b005b34801561050057600080fd5b50610509610ea7565b6040516105169190612ead565b60405180910390f35b34801561052b57600080fd5b506105466004803603810190610541919061272a565b610ec5565b6040516105539190612bcb565b60405180910390f35b34801561056857600080fd5b50610571610f6c565b60405161057e9190612ead565b60405180910390f35b34801561059357600080fd5b506105ae60048036038101906105a9919061255a565b610f72565b6040516105bb9190612bb0565b60405180910390f35b3480156105d057600080fd5b506105eb60048036038101906105e69190612531565b611006565b005b60006105f8826110fe565b9050919050565b60606000805461060e906130d2565b80601f016020809104026020016040519081016040528092919081815260200182805461063a906130d2565b80156106875780601f1061065c57610100808354040283529160200191610687565b820191906000526020600020905b81548152906001019060200180831161066a57829003601f168201915b5050505050905090565b600061069c82611178565b6106db576040517f08c379a00000000000000000000000000000000000000000000000000000000081526004016106d290612dad565b60405180910390fd5b6004600083815260200190815260200160002060009054906101000a900473ffffffffffffffffffffffffffffffffffffffff169050919050565b600061072182610b7b565b90508073ffffffffffffffffffffffffffffffffffffffff168373ffffffffffffffffffffffffffffffffffffffff161415610792576040517f08c379a000000000000000000000000000000000000000000000000000000000815260040161078990612e4d565b60405180910390fd5b8073ffffffffffffffffffffffffffffffffffffffff166107b16111e4565b73ffffffffffffffffffffffffffffffffffffffff1614806107e057506107df816107da6111e4565b610f72565b5b61081f576040517f08c379a000000000000000000000000000000000000000000000000000000000815260040161081690612d2d565b60405180910390fd5b61082983836111ec565b505050565b600061083a600e6112a5565b9050600c54341015610881576040517f08c379a000000000000000000000000000000000000000000000000000000000815260040161087890612c8d565b60405180910390fd5b600b5442106108c5576040517f08c379a00000000000000000000000000000000000000000000000000000000081526004016108bc90612e2d565b60405180910390fd5b600d546001826108d59190612f61565b1115610916576040517f08c379a000000000000000000000000000000000000000000000000000000000815260040161090d90612dcd565b60405180910390fd5b610920600e6112b3565b61092a33826112c9565b50565b60008073ffffffffffffffffffffffffffffffffffffffff163373ffffffffffffffffffffffffffffffffffffffff16141561099e576040517f08c379a000000000000000000000000000000000000000000000000000000000815260040161099590612d0d565b60405180910390fd5b6109a733610c33565b905090565b6000600880549050905090565b600b5481565b6109d06109ca6111e4565b826112e7565b610a0f576040517f08c379a0000000000000000000000000000000000000000000000000000000008152600401610a0690612e6d565b60405180910390fd5b610a1a8383836113c5565b505050565b6000610a2a83610c33565b8210610a6b576040517f08c379a0000000000000000000000000000000000000000000000000000000008152600401610a6290612bed565b60405180910390fd5b600660008473ffffffffffffffffffffffffffffffffffffffff1673ffffffffffffffffffffffffffffffffffffffff168152602001908152602001600020600083815260200190815260200160002054905092915050565b610adf83838360405180602001604052806000815250610e45565b505050565b6000610aee6109ac565b8210610b2f576040517f08c379a0000000000000000000000000000000000000000000000000000000008152600401610b2690612e8d565b60405180910390fd5b60088281548110610b69577f4e487b7100000000000000000000000000000000000000000000000000000000600052603260045260246000fd5b90600052602060002001549050919050565b6000806002600084815260200190815260200160002060009054906101000a900473ffffffffffffffffffffffffffffffffffffffff169050600073ffffffffffffffffffffffffffffffffffffffff168173ffffffffffffffffffffffffffffffffffffffff161415610c24576040517f08c379a0000000000000000000000000000000000000000000000000000000008152600401610c1b90612d6d565b60405180910390fd5b80915050919050565b600c5481565b60008073ffffffffffffffffffffffffffffffffffffffff168273ffffffffffffffffffffffffffffffffffffffff161415610ca4576040517f08c379a0000000000000000000000000000000000000000000000000000000008152600401610c9b90612d4d565b60405180910390fd5b600360008373ffffffffffffffffffffffffffffffffffffffff1673ffffffffffffffffffffffffffffffffffffffff168152602001908152602001600020549050919050565b610cf36111e4565b73ffffffffffffffffffffffffffffffffffffffff16610d11610d73565b73ffffffffffffffffffffffffffffffffffffffff1614610d67576040517f08c379a0000000000000000000000000000000000000000000000000000000008152600401610d5e90612ded565b60405180910390fd5b610d71600061162c565b565b6000600a60009054906101000a900473ffffffffffffffffffffffffffffffffffffffff16905090565b606060018054610dac906130d2565b80601f0160208091040260200160405190810160405280929190818152602001828054610dd8906130d2565b8015610e255780601f10610dfa57610100808354040283529160200191610e25565b820191906000526020600020905b815481529060010190602001808311610e0857829003601f168201915b5050505050905090565b610e41610e3a6111e4565b83836116f2565b5050565b610e56610e506111e4565b836112e7565b610e95576040517f08c379a0000000000000000000000000000000000000000000000000000000008152600401610e8c90612e6d565b60405180910390fd5b610ea18484848461185f565b50505050565b6000610eb3600e6112a5565b600d54610ec09190612fe8565b905090565b6060610ed082611178565b610f0f576040517f08c379a0000000000000000000000000000000000000000000000000000000008152600401610f0690612e0d565b60405180910390fd5b6000610f196118bb565b90506000815111610f395760405180602001604052806000815250610f64565b80610f43846118d2565b604051602001610f54929190612b25565b6040516020818303038152906040525b915050919050565b600d5481565b6000600560008473ffffffffffffffffffffffffffffffffffffffff1673ffffffffffffffffffffffffffffffffffffffff16815260200190815260200160002060008373ffffffffffffffffffffffffffffffffffffffff1673ffffffffffffffffffffffffffffffffffffffff16815260200190815260200160002060009054906101000a900460ff16905092915050565b61100e6111e4565b73ffffffffffffffffffffffffffffffffffffffff1661102c610d73565b73ffffffffffffffffffffffffffffffffffffffff1614611082576040517f08c379a000000000000000000000000000000000000000000000000000000000815260040161107990612ded565b60405180910390fd5b600073ffffffffffffffffffffffffffffffffffffffff168173ffffffffffffffffffffffffffffffffffffffff1614156110f2576040517f08c379a00000000000000000000000000000000000000000000000000000000081526004016110e990612c2d565b60405180910390fd5b6110fb8161162c565b50565b60007f780e9d63000000000000000000000000000000000000000000000000000000007bffffffffffffffffffffffffffffffffffffffffffffffffffffffff1916827bffffffffffffffffffffffffffffffffffffffffffffffffffffffff19161480611171575061117082611a7f565b5b9050919050565b60008073ffffffffffffffffffffffffffffffffffffffff166002600084815260200190815260200160002060009054906101000a900473ffffffffffffffffffffffffffffffffffffffff1673ffffffffffffffffffffffffffffffffffffffff1614159050919050565b600033905090565b816004600083815260200190815260200160002060006101000a81548173ffffffffffffffffffffffffffffffffffffffff021916908373ffffffffffffffffffffffffffffffffffffffff160217905550808273ffffffffffffffffffffffffffffffffffffffff1661125f83610b7b565b73ffffffffffffffffffffffffffffffffffffffff167f8c5be1e5ebec7d5bd14f71427d1e84f3dd0314c0f7b2291e5b200ac8c7c3b92560405160405180910390a45050565b600081600001549050919050565b6001816000016000828254019250508190555050565b6112e3828260405180602001604052806000815250611b61565b5050565b60006112f282611178565b611331576040517f08c379a000000000000000000000000000000000000000000000000000000000815260040161132890612ced565b60405180910390fd5b600061133c83610b7b565b90508073ffffffffffffffffffffffffffffffffffffffff168473ffffffffffffffffffffffffffffffffffffffff16148061137e575061137d8185610f72565b5b806113bc57508373ffffffffffffffffffffffffffffffffffffffff166113a484610691565b73ffffffffffffffffffffffffffffffffffffffff16145b91505092915050565b8273ffffffffffffffffffffffffffffffffffffffff166113e582610b7b565b73ffffffffffffffffffffffffffffffffffffffff161461143b576040517f08c379a000000000000000000000000000000000000000000000000000000000815260040161143290612c4d565b60405180910390fd5b600073ffffffffffffffffffffffffffffffffffffffff168273ffffffffffffffffffffffffffffffffffffffff1614156114ab576040517f08c379a00000000000000000000000000000000000000000000000000000000081526004016114a290612cad565b60405180910390fd5b6114b6838383611bbc565b6114c16000826111ec565b6001600360008573ffffffffffffffffffffffffffffffffffffffff1673ffffffffffffffffffffffffffffffffffffffff16815260200190815260200160002060008282546115119190612fe8565b925050819055506001600360008473ffffffffffffffffffffffffffffffffffffffff1673ffffffffffffffffffffffffffffffffffffffff16815260200190815260200160002060008282546115689190612f61565b92505081905550816002600083815260200190815260200160002060006101000a81548173ffffffffffffffffffffffffffffffffffffffff021916908373ffffffffffffffffffffffffffffffffffffffff160217905550808273ffffffffffffffffffffffffffffffffffffffff168473ffffffffffffffffffffffffffffffffffffffff167fddf252ad1be2c89b69c2b068fc378daa952ba7f163c4a11628f55a4df523b3ef60405160405180910390a4611627838383611bcc565b505050565b6000600a60009054906101000a900473ffffffffffffffffffffffffffffffffffffffff16905081600a60006101000a81548173ffffffffffffffffffffffffffffffffffffffff021916908373ffffffffffffffffffffffffffffffffffffffff1602179055508173ffffffffffffffffffffffffffffffffffffffff168173ffffffffffffffffffffffffffffffffffffffff167f8be0079c531659141344cd1fd0a4f28419497f9722a3daafe3b4186f6b6457e060405160405180910390a35050565b8173ffffffffffffffffffffffffffffffffffffffff168373ffffffffffffffffffffffffffffffffffffffff161415611761576040517f08c379a000000000000000000000000000000000000000000000000000000000815260040161175890612ccd565b60405180910390fd5b80600560008573ffffffffffffffffffffffffffffffffffffffff1673ffffffffffffffffffffffffffffffffffffffff16815260200190815260200160002060008473ffffffffffffffffffffffffffffffffffffffff1673ffffffffffffffffffffffffffffffffffffffff16815260200190815260200160002060006101000a81548160ff0219169083151502179055508173ffffffffffffffffffffffffffffffffffffffff168373ffffffffffffffffffffffffffffffffffffffff167f17307eab39ab6107e8899845ad3d59bd9653f200f220920489ca2b5937696c31836040516118529190612bb0565b60405180910390a3505050565b61186a8484846113c5565b61187684848484611bd1565b6118b5576040517f08c379a00000000000000000000000000000000000000000000000000000000081526004016118ac90612c0d565b60405180910390fd5b50505050565b606060405180602001604052806000815250905090565b6060600082141561191a576040518060400160405280600181526020017f30000000000000000000000000000000000000000000000000000000000000008152509050611a7a565b600082905060005b6000821461194c57808061193590613135565b915050600a826119459190612fb7565b9150611922565b60008167ffffffffffffffff81111561198e577f4e487b7100000000000000000000000000000000000000000000000000000000600052604160045260246000fd5b6040519080825280601f01601f1916602001820160405280156119c05781602001600182028036833780820191505090505b5090505b60008514611a73576001826119d99190612fe8565b9150600a856119e8919061317e565b60306119f49190612f61565b60f81b818381518110611a30577f4e487b7100000000000000000000000000000000000000000000000000000000600052603260045260246000fd5b60200101907effffffffffffffffffffffffffffffffffffffffffffffffffffffffffffff1916908160001a905350600a85611a6c9190612fb7565b94506119c4565b8093505050505b919050565b60007f80ac58cd000000000000000000000000000000000000000000000000000000007bffffffffffffffffffffffffffffffffffffffffffffffffffffffff1916827bffffffffffffffffffffffffffffffffffffffffffffffffffffffff19161480611b4a57507f5b5e139f000000000000000000000000000000000000000000000000000000007bffffffffffffffffffffffffffffffffffffffffffffffffffffffff1916827bffffffffffffffffffffffffffffffffffffffffffffffffffffffff1916145b80611b5a5750611b5982611d68565b5b9050919050565b611b6b8383611dd2565b611b786000848484611bd1565b611bb7576040517f08c379a0000000000000000000000000000000000000000000000000000000008152600401611bae90612c0d565b60405180910390fd5b505050565b611bc7838383611fac565b505050565b505050565b6000611bf28473ffffffffffffffffffffffffffffffffffffffff166120c0565b15611d5b578373ffffffffffffffffffffffffffffffffffffffff1663150b7a02611c1b6111e4565b8786866040518563ffffffff1660e01b8152600401611c3d9493929190612b64565b602060405180830381600087803b158015611c5757600080fd5b505af1925050508015611c8857506040513d601f19601f82011682018060405250810190611c859190612701565b60015b611d0b573d8060008114611cb8576040519150601f19603f3d011682016040523d82523d6000602084013e611cbd565b606091505b50600081511415611d03576040517f08c379a0000000000000000000000000000000000000000000000000000000008152600401611cfa90612c0d565b60405180910390fd5b805181602001fd5b63150b7a0260e01b7bffffffffffffffffffffffffffffffffffffffffffffffffffffffff1916817bffffffffffffffffffffffffffffffffffffffffffffffffffffffff191614915050611d60565b600190505b949350505050565b60007f01ffc9a7000000000000000000000000000000000000000000000000000000007bffffffffffffffffffffffffffffffffffffffffffffffffffffffff1916827bffffffffffffffffffffffffffffffffffffffffffffffffffffffff1916149050919050565b600073ffffffffffffffffffffffffffffffffffffffff168273ffffffffffffffffffffffffffffffffffffffff161415611e42576040517f08c379a0000000000000000000000000000000000000000000000000000000008152600401611e3990612d8d565b60405180910390fd5b611e4b81611178565b15611e8b576040517f08c379a0000000000000000000000000000000000000000000000000000000008152600401611e8290612c6d565b60405180910390fd5b611e9760008383611bbc565b6001600360008473ffffffffffffffffffffffffffffffffffffffff1673ffffffffffffffffffffffffffffffffffffffff1681526020019081526020016000206000828254611ee79190612f61565b92505081905550816002600083815260200190815260200160002060006101000a81548173ffffffffffffffffffffffffffffffffffffffff021916908373ffffffffffffffffffffffffffffffffffffffff160217905550808273ffffffffffffffffffffffffffffffffffffffff16600073ffffffffffffffffffffffffffffffffffffffff167fddf252ad1be2c89b69c2b068fc378daa952ba7f163c4a11628f55a4df523b3ef60405160405180910390a4611fa860008383611bcc565b5050565b611fb78383836120e3565b600073ffffffffffffffffffffffffffffffffffffffff168373ffffffffffffffffffffffffffffffffffffffff161415611ffa57611ff5816120e8565b612039565b8173ffffffffffffffffffffffffffffffffffffffff168373ffffffffffffffffffffffffffffffffffffffff1614612038576120378382612131565b5b5b600073ffffffffffffffffffffffffffffffffffffffff168273ffffffffffffffffffffffffffffffffffffffff16141561207c576120778161229e565b6120bb565b8273ffffffffffffffffffffffffffffffffffffffff168273ffffffffffffffffffffffffffffffffffffffff16146120ba576120b982826123e1565b5b5b505050565b6000808273ffffffffffffffffffffffffffffffffffffffff163b119050919050565b505050565b6008805490506009600083815260200190815260200160002081905550600881908060018154018082558091505060019003906000526020600020016000909190919091505550565b6000600161213e84610c33565b6121489190612fe8565b905060006007600084815260200190815260200160002054905081811461222d576000600660008673ffffffffffffffffffffffffffffffffffffffff1673ffffffffffffffffffffffffffffffffffffffff168152602001908152602001600020600084815260200190815260200160002054905080600660008773ffffffffffffffffffffffffffffffffffffffff1673ffffffffffffffffffffffffffffffffffffffff168152602001908152602001600020600084815260200190815260200160002081905550816007600083815260200190815260200160002081905550505b6007600084815260200190815260200160002060009055600660008573ffffffffffffffffffffffffffffffffffffffff1673ffffffffffffffffffffffffffffffffffffffff16815260200190815260200160002060008381526020019081526020016000206000905550505050565b600060016008805490506122b29190612fe8565b9050600060096000848152602001908152602001600020549050600060088381548110612308577f4e487b7100000000000000000000000000000000000000000000000000000000600052603260045260246000fd5b906000526020600020015490508060088381548110612350577f4e487b7100000000000000000000000000000000000000000000000000000000600052603260045260246000fd5b9060005260206000200181905550816009600083815260200190815260200160002081905550600960008581526020019081526020016000206000905560088054806123c5577f4e487b7100000000000000000000000000000000000000000000000000000000600052603160045260246000fd5b6001900381819060005260206000200160009055905550505050565b60006123ec83610c33565b905081600660008573ffffffffffffffffffffffffffffffffffffffff1673ffffffffffffffffffffffffffffffffffffffff168152602001908152602001600020600083815260200190815260200160002081905550806007600084815260200190815260200160002081905550505050565b600061247361246e84612eed565b612ec8565b90508281526020810184848401111561248b57600080fd5b612496848285613090565b509392505050565b6000813590506124ad8161383c565b92915050565b6000813590506124c281613853565b92915050565b6000813590506124d78161386a565b92915050565b6000815190506124ec8161386a565b92915050565b600082601f83011261250357600080fd5b8135612513848260208601612460565b91505092915050565b60008135905061252b81613881565b92915050565b60006020828403121561254357600080fd5b60006125518482850161249e565b91505092915050565b6000806040838503121561256d57600080fd5b600061257b8582860161249e565b925050602061258c8582860161249e565b9150509250929050565b6000806000606084860312156125ab57600080fd5b60006125b98682870161249e565b93505060206125ca8682870161249e565b92505060406125db8682870161251c565b9150509250925092565b600080600080608085870312156125fb57600080fd5b60006126098782880161249e565b945050602061261a8782880161249e565b935050604061262b8782880161251c565b925050606085013567ffffffffffffffff81111561264857600080fd5b612654878288016124f2565b91505092959194509250565b6000806040838503121561267357600080fd5b60006126818582860161249e565b9250506020612692858286016124b3565b9150509250929050565b600080604083850312156126af57600080fd5b60006126bd8582860161249e565b92505060206126ce8582860161251c565b9150509250929050565b6000602082840312156126ea57600080fd5b60006126f8848285016124c8565b91505092915050565b60006020828403121561271357600080fd5b6000612721848285016124dd565b91505092915050565b60006020828403121561273c57600080fd5b600061274a8482850161251c565b91505092915050565b61275c8161301c565b82525050565b61276b8161302e565b82525050565b600061277c82612f1e565b6127868185612f34565b935061279681856020860161309f565b61279f8161326b565b840191505092915050565b60006127b582612f29565b6127bf8185612f45565b93506127cf81856020860161309f565b6127d88161326b565b840191505092915050565b60006127ee82612f29565b6127f88185612f56565b935061280881856020860161309f565b80840191505092915050565b6000612821602b83612f45565b915061282c8261327c565b604082019050919050565b6000612844603283612f45565b915061284f826132cb565b604082019050919050565b6000612867602683612f45565b91506128728261331a565b604082019050919050565b600061288a602583612f45565b915061289582613369565b604082019050919050565b60006128ad601c83612f45565b91506128b8826133b8565b602082019050919050565b60006128d0601283612f45565b91506128db826133e1565b602082019050919050565b60006128f3602483612f45565b91506128fe8261340a565b604082019050919050565b6000612916601983612f45565b915061292182613459565b602082019050919050565b6000612939602c83612f45565b915061294482613482565b604082019050919050565b600061295c602983612f45565b9150612967826134d1565b604082019050919050565b600061297f603883612f45565b915061298a82613520565b604082019050919050565b60006129a2602a83612f45565b91506129ad8261356f565b604082019050919050565b60006129c5602983612f45565b91506129d0826135be565b604082019050919050565b60006129e8602083612f45565b91506129f38261360d565b602082019050919050565b6000612a0b602c83612f45565b9150612a1682613636565b604082019050919050565b6000612a2e601383612f45565b9150612a3982613685565b602082019050919050565b6000612a51602083612f45565b9150612a5c826136ae565b602082019050919050565b6000612a74602f83612f45565b9150612a7f826136d7565b604082019050919050565b6000612a97601c83612f45565b9150612aa282613726565b602082019050919050565b6000612aba602183612f45565b9150612ac58261374f565b604082019050919050565b6000612add603183612f45565b9150612ae88261379e565b604082019050919050565b6000612b00602c83612f45565b9150612b0b826137ed565b604082019050919050565b612b1f81613086565b82525050565b6000612b3182856127e3565b9150612b3d82846127e3565b91508190509392505050565b6000602082019050612b5e6000830184612753565b92915050565b6000608082019050612b796000830187612753565b612b866020830186612753565b612b936040830185612b16565b8181036060830152612ba58184612771565b905095945050505050565b6000602082019050612bc56000830184612762565b92915050565b60006020820190508181036000830152612be581846127aa565b905092915050565b60006020820190508181036000830152612c0681612814565b9050919050565b60006020820190508181036000830152612c2681612837565b9050919050565b60006020820190508181036000830152612c468161285a565b9050919050565b60006020820190508181036000830152612c668161287d565b9050919050565b60006020820190508181036000830152612c86816128a0565b9050919050565b60006020820190508181036000830152612ca6816128c3565b9050919050565b60006020820190508181036000830152612cc6816128e6565b9050919050565b60006020820190508181036000830152612ce681612909565b9050919050565b60006020820190508181036000830152612d068161292c565b9050919050565b60006020820190508181036000830152612d268161294f565b9050919050565b60006020820190508181036000830152612d4681612972565b9050919050565b60006020820190508181036000830152612d6681612995565b9050919050565b60006020820190508181036000830152612d86816129b8565b9050919050565b60006020820190508181036000830152612da6816129db565b9050919050565b60006020820190508181036000830152612dc6816129fe565b9050919050565b60006020820190508181036000830152612de681612a21565b9050919050565b60006020820190508181036000830152612e0681612a44565b9050919050565b60006020820190508181036000830152612e2681612a67565b9050919050565b60006020820190508181036000830152612e4681612a8a565b9050919050565b60006020820190508181036000830152612e6681612aad565b9050919050565b60006020820190508181036000830152612e8681612ad0565b9050919050565b60006020820190508181036000830152612ea681612af3565b9050919050565b6000602082019050612ec26000830184612b16565b92915050565b6000612ed2612ee3565b9050612ede8282613104565b919050565b6000604051905090565b600067ffffffffffffffff821115612f0857612f0761323c565b5b612f118261326b565b9050602081019050919050565b600081519050919050565b600081519050919050565b600082825260208201905092915050565b600082825260208201905092915050565b600081905092915050565b6000612f6c82613086565b9150612f7783613086565b9250827fffffffffffffffffffffffffffffffffffffffffffffffffffffffffffffffff03821115612fac57612fab6131af565b5b828201905092915050565b6000612fc282613086565b9150612fcd83613086565b925082612fdd57612fdc6131de565b5b828204905092915050565b6000612ff382613086565b9150612ffe83613086565b925082821015613011576130106131af565b5b828203905092915050565b600061302782613066565b9050919050565b60008115159050919050565b60007fffffffff0000000000000000000000000000000000000000000000000000000082169050919050565b600073ffffffffffffffffffffffffffffffffffffffff82169050919050565b6000819050919050565b82818337600083830152505050565b60005b838110156130bd5780820151818401526020810190506130a2565b838111156130cc576000848401525b50505050565b600060028204905060018216806130ea57607f821691505b602082108114156130fe576130fd61320d565b5b50919050565b61310d8261326b565b810181811067ffffffffffffffff8211171561312c5761312b61323c565b5b80604052505050565b600061314082613086565b91507fffffffffffffffffffffffffffffffffffffffffffffffffffffffffffffffff821415613173576131726131af565b5b600182019050919050565b600061318982613086565b915061319483613086565b9250826131a4576131a36131de565b5b828206905092915050565b7f4e487b7100000000000000000000000000000000000000000000000000000000600052601160045260246000fd5b7f4e487b7100000000000000000000000000000000000000000000000000000000600052601260045260246000fd5b7f4e487b7100000000000000000000000000000000000000000000000000000000600052602260045260246000fd5b7f4e487b7100000000000000000000000000000000000000000000000000000000600052604160045260246000fd5b6000601f19601f8301169050919050565b7f455243373231456e756d657261626c653a206f776e657220696e646578206f7560008201527f74206f6620626f756e6473000000000000000000000000000000000000000000602082015250565b7f4552433732313a207472616e7366657220746f206e6f6e20455243373231526560008201527f63656976657220696d706c656d656e7465720000000000000000000000000000602082015250565b7f4f776e61626c653a206e6577206f776e657220697320746865207a65726f206160008201527f6464726573730000000000000000000000000000000000000000000000000000602082015250565b7f4552433732313a207472616e736665722066726f6d20696e636f72726563742060008201527f6f776e6572000000000000000000000000000000000000000000000000000000602082015250565b7f4552433732313a20746f6b656e20616c7265616479206d696e74656400000000600082015250565b7f496e76616c6964206d696e742070726963650000000000000000000000000000600082015250565b7f4552433732313a207472616e7366657220746f20746865207a65726f2061646460008201527f7265737300000000000000000000000000000000000000000000000000000000602082015250565b7f4552433732313a20617070726f766520746f2063616c6c657200000000000000600082015250565b7f4552433732313a206f70657261746f7220717565727920666f72206e6f6e657860008201527f697374656e7420746f6b656e0000000000000000000000000000000000000000602082015250565b7f4552433732313a2061646472657373207a65726f206973206e6f74206120766160008201527f6c6964206f776e65720000000000000000000000000000000000000000000000602082015250565b7f4552433732313a20617070726f76652063616c6c6572206973206e6f74206f7760008201527f6e6572206e6f7220617070726f76656420666f7220616c6c0000000000000000602082015250565b7f4552433732313a2062616c616e636520717565727920666f7220746865207a6560008201527f726f206164647265737300000000000000000000000000000000000000000000602082015250565b7f4552433732313a206f776e657220717565727920666f72206e6f6e657869737460008201527f656e7420746f6b656e0000000000000000000000000000000000000000000000602082015250565b7f4552433732313a206d696e7420746f20746865207a65726f2061646472657373600082015250565b7f4552433732313a20617070726f76656420717565727920666f72206e6f6e657860008201527f697374656e7420746f6b656e0000000000000000000000000000000000000000602082015250565b7f496e73756666696369656e7420737570706c7900000000000000000000000000600082015250565b7f4f776e61626c653a2063616c6c6572206973206e6f7420746865206f776e6572600082015250565b7f4552433732314d657461646174613a2055524920717565727920666f72206e6f60008201527f6e6578697374656e7420746f6b656e0000000000000000000000000000000000602082015250565b7f5468652061756374696f6e206e6f74207374617274696e672079657400000000600082015250565b7f4552433732313a20617070726f76616c20746f2063757272656e74206f776e6560008201527f7200000000000000000000000000000000000000000000000000000000000000602082015250565b7f4552433732313a207472616e736665722063616c6c6572206973206e6f74206f60008201527f776e6572206e6f7220617070726f766564000000000000000000000000000000602082015250565b7f455243373231456e756d657261626c653a20676c6f62616c20696e646578206f60008201527f7574206f6620626f756e64730000000000000000000000000000000000000000602082015250565b6138458161301c565b811461385057600080fd5b50565b61385c8161302e565b811461386757600080fd5b50565b6138738161303a565b811461387e57600080fd5b50565b61388a81613086565b811461389557600080fd5b5056fea2646970667358221220c9119668efe25864b297d0489995123854e8e0489892e6acc5523274d9a6d74364736f6c63430008040033",
  "linkReferences": {},
  "deployedLinkReferences": {}
}