{
  "_format": "hh-sol-artifact-1",
  "contractName": "IDONTKNOW",
  "sourceName": "contracts/new721.sol",
  "abi": [
    {
      "inputs": [
        {
          "internalType": "uint256",
          "name": "_saleStartTime",
          "type": "uint256"
        },
        {
          "internalType": "uint256",
          "name": "_totalSupply",
          "type": "uint256"
        }
      ],
      "stateMutability": "nonpayable",
      "type": "constructor"
    },
    {
      "anonymous": false,
      "inputs": [
        {
          "indexed": true,
          "internalType": "address",
          "name": "owner",
          "type": "address"
        },
        {
          "indexed": true,
          "internalType": "address",
          "name": "approved",
          "type": "address"
        },
        {
          "indexed": true,
          "internalType": "uint256",
          "name": "tokenId",
          "type": "uint256"
        }
      ],
      "name": "Approval",
      "type": "event"
    },
    {
      "anonymous": false,
      "inputs": [
        {
          "indexed": true,
          "internalType": "address",
          "name": "owner",
          "type": "address"
        },
        {
          "indexed": true,
          "internalType": "address",
          "name": "operator",
          "type": "address"
        },
        {
          "indexed": false,
          "internalType": "bool",
          "name": "approved",
          "type": "bool"
        }
      ],
      "name": "ApprovalForAll",
      "type": "event"
    },
    {
      "anonymous": false,
      "inputs": [
        {
          "indexed": true,
          "internalType": "address",
          "name": "from",
          "type": "address"
        },
        {
          "indexed": true,
          "internalType": "address",
          "name": "to",
          "type": "address"
        },
        {
          "indexed": true,
          "internalType": "uint256",
          "name": "tokenId",
          "type": "uint256"
        }
      ],
      "name": "Transfer",
      "type": "event"
    },
    {
      "inputs": [
        {
          "internalType": "address",
          "name": "to",
          "type": "address"
        },
        {
          "internalType": "uint256",
          "name": "tokenId",
          "type": "uint256"
        }
      ],
      "name": "approve",
      "outputs": [],
      "stateMutability": "nonpayable",
      "type": "function"
    },
    {
      "inputs": [
        {
          "internalType": "address",
          "name": "owner",
          "type": "address"
        }
      ],
      "name": "balanceOf",
      "outputs": [
        {
          "internalType": "uint256",
          "name": "",
          "type": "uint256"
        }
      ],
      "stateMutability": "view",
      "type": "function"
    },
    {
      "inputs": [
        {
          "internalType": "uint256",
          "name": "tokenId",
          "type": "uint256"
        }
      ],
      "name": "getApproved",
      "outputs": [
        {
          "internalType": "address",
          "name": "",
          "type": "address"
        }
      ],
      "stateMutability": "view",
      "type": "function"
    },
    {
      "inputs": [],
      "name": "getAvailableSupply",
      "outputs": [
        {
          "internalType": "uint256",
          "name": "",
          "type": "uint256"
        }
      ],
      "stateMutability": "view",
      "type": "function"
    },
    {
      "inputs": [
        {
          "internalType": "address",
          "name": "owner",
          "type": "address"
        },
        {
          "internalType": "address",
          "name": "operator",
          "type": "address"
        }
      ],
      "name": "isApprovedForAll",
      "outputs": [
        {
          "internalType": "bool",
          "name": "",
          "type": "bool"
        }
      ],
      "stateMutability": "view",
      "type": "function"
    },
    {
      "inputs": [],
      "name": "maxSupply",
      "outputs": [
        {
          "internalType": "uint256",
          "name": "",
          "type": "uint256"
        }
      ],
      "stateMutability": "view",
      "type": "function"
    },
    {
      "inputs": [
        {
          "internalType": "uint256",
          "name": "tokenId",
          "type": "uint256"
        },
        {
          "internalType": "uint256",
          "name": "_mintPrice",
          "type": "uint256"
        }
      ],
      "name": "mint",
      "outputs": [],
      "stateMutability": "nonpayable",
      "type": "function"
    },
    {
      "inputs": [],
      "name": "mintPrice",
      "outputs": [
        {
          "internalType": "uint256",
          "name": "",
          "type": "uint256"
        }
      ],
      "stateMutability": "view",
      "type": "function"
    },
    {
      "inputs": [],
      "name": "name",
      "outputs": [
        {
          "internalType": "string",
          "name": "",
          "type": "string"
        }
      ],
      "stateMutability": "view",
      "type": "function"
    },
    {
      "inputs": [
        {
          "internalType": "uint256",
          "name": "tokenId",
          "type": "uint256"
        }
      ],
      "name": "ownerOf",
      "outputs": [
        {
          "internalType": "address",
          "name": "",
          "type": "address"
        }
      ],
      "stateMutability": "view",
      "type": "function"
    },
    {
      "inputs": [
        {
          "internalType": "address",
          "name": "from",
          "type": "address"
        },
        {
          "internalType": "address",
          "name": "to",
          "type": "address"
        },
        {
          "internalType": "uint256",
          "name": "tokenId",
          "type": "uint256"
        }
      ],
      "name": "safeTransferFrom",
      "outputs": [],
      "stateMutability": "nonpayable",
      "type": "function"
    },
    {
      "inputs": [
        {
          "internalType": "address",
          "name": "from",
          "type": "address"
        },
        {
          "internalType": "address",
          "name": "to",
          "type": "address"
        },
        {
          "internalType": "uint256",
          "name": "tokenId",
          "type": "uint256"
        },
        {
          "internalType": "bytes",
          "name": "_data",
          "type": "bytes"
        }
      ],
      "name": "safeTransferFrom",
      "outputs": [],
      "stateMutability": "nonpayable",
      "type": "function"
    },
    {
      "inputs": [],
      "name": "saleStartTime",
      "outputs": [
        {
          "internalType": "uint256",
          "name": "",
          "type": "uint256"
        }
      ],
      "stateMutability": "view",
      "type": "function"
    },
    {
      "inputs": [
        {
          "internalType": "address",
          "name": "operator",
          "type": "address"
        },
        {
          "internalType": "bool",
          "name": "approved",
          "type": "bool"
        }
      ],
      "name": "setApprovalForAll",
      "outputs": [],
      "stateMutability": "nonpayable",
      "type": "function"
    },
    {
      "inputs": [
        {
          "internalType": "bytes4",
          "name": "interfaceId",
          "type": "bytes4"
        }
      ],
      "name": "supportsInterface",
      "outputs": [
        {
          "internalType": "bool",
          "name": "",
          "type": "bool"
        }
      ],
      "stateMutability": "view",
      "type": "function"
    },
    {
      "inputs": [],
      "name": "symbol",
      "outputs": [
        {
          "internalType": "string",
          "name": "",
          "type": "string"
        }
      ],
      "stateMutability": "view",
      "type": "function"
    },
    {
      "inputs": [],
      "name": "t123",
      "outputs": [
        {
          "internalType": "uint256",
          "name": "",
          "type": "uint256"
        }
      ],
      "stateMutability": "view",
      "type": "function"
    },
    {
      "inputs": [
        {
          "internalType": "uint256",
          "name": "tokenId",
          "type": "uint256"
        }
      ],
      "name": "tokenURI",
      "outputs": [
        {
          "internalType": "string",
          "name": "",
          "type": "string"
        }
      ],
      "stateMutability": "view",
      "type": "function"
    },
    {
      "inputs": [],
      "name": "totalSupply",
      "outputs": [
        {
          "internalType": "uint256",
          "name": "",
          "type": "uint256"
        }
      ],
      "stateMutability": "view",
      "type": "function"
    },
    {
      "inputs": [
        {
          "internalType": "address",
          "name": "from",
          "type": "address"
        },
        {
          "internalType": "address",
          "name": "to",
          "type": "address"
        },
        {
          "internalType": "uint256",
          "name": "tokenId",
          "type": "uint256"
        }
      ],
      "name": "transferFrom",
      "outputs": [],
      "stateMutability": "nonpayable",
      "type": "function"
    }
  ],
  "bytecode": "0x60806040526064600855601e6009553480156200001b57600080fd5b5060405162002cef38038062002cef8339818101604052810190620000419190620001be565b6040518060400160405280600581526020017f4d594e46540000000000000000000000000000000000000000000000000000008152506040518060400160405280600481526020017f42414e47000000000000000000000000000000000000000000000000000000008152508160009080519060200190620000c5929190620000f7565b508060019080519060200190620000de929190620000f7565b5050508160068190555080600781905550505062000288565b828054620001059062000209565b90600052602060002090601f01602090048101928262000129576000855562000175565b82601f106200014457805160ff191683800117855562000175565b8280016001018555821562000175579182015b828111156200017457825182559160200191906001019062000157565b5b50905062000184919062000188565b5090565b5b80821115620001a357600081600090555060010162000189565b5090565b600081519050620001b8816200026e565b92915050565b60008060408385031215620001d257600080fd5b6000620001e285828601620001a7565b9250506020620001f585828601620001a7565b9150509250929050565b6000819050919050565b600060028204905060018216806200022257607f821691505b602082108114156200023957620002386200023f565b5b50919050565b7f4e487b7100000000000000000000000000000000000000000000000000000000600052602260045260246000fd5b6200027981620001ff565b81146200028557600080fd5b50565b612a5780620002986000396000f3fe608060405234801561001057600080fd5b506004361061012c5760003560e01c80636817c76c116100ad578063c167d1cd11610071578063c167d1cd1461032f578063c87b56dd1461034d578063d5abeb011461037d578063e66042b11461039b578063e985e9c5146103b95761012c565b80636817c76c1461028b57806370a08231146102a957806395d89b41146102d9578063a22cb465146102f7578063b88d4fde146103135761012c565b80631b2ef1ca116100f45780631b2ef1ca146101e95780631cbaee2d1461020557806323b872dd1461022357806342842e0e1461023f5780636352211e1461025b5761012c565b806301ffc9a71461013157806306fdde0314610161578063081812fc1461017f578063095ea7b3146101af57806318160ddd146101cb575b600080fd5b61014b60048036038101906101469190611ad9565b6103e9565b6040516101589190611f3e565b60405180910390f35b6101696104cb565b6040516101769190611f59565b60405180910390f35b61019960048036038101906101949190611b2b565b61055d565b6040516101a69190611ed7565b60405180910390f35b6101c960048036038101906101c49190611a9d565b6105e2565b005b6101d36106fa565b6040516101e0919061219b565b60405180910390f35b61020360048036038101906101fe9190611b54565b610700565b005b61020d6107f8565b60405161021a919061219b565b60405180910390f35b61023d60048036038101906102389190611997565b6107fe565b005b61025960048036038101906102549190611997565b61085e565b005b61027560048036038101906102709190611b2b565b61087e565b6040516102829190611ed7565b60405180910390f35b610293610930565b6040516102a0919061219b565b60405180910390f35b6102c360048036038101906102be9190611932565b610936565b6040516102d0919061219b565b60405180910390f35b6102e16109ee565b6040516102ee9190611f59565b60405180910390f35b610311600480360381019061030c9190611a61565b610a80565b005b61032d600480360381019061032891906119e6565b610a96565b005b610337610af8565b604051610344919061219b565b60405180910390f35b61036760048036038101906103629190611b2b565b610b0f565b6040516103749190611f59565b60405180910390f35b610385610bb6565b604051610392919061219b565b60405180910390f35b6103a3610bbc565b6040516103b0919061219b565b60405180910390f35b6103d360048036038101906103ce919061195b565b610bc6565b6040516103e09190611f3e565b60405180910390f35b60007f80ac58cd000000000000000000000000000000000000000000000000000000007bffffffffffffffffffffffffffffffffffffffffffffffffffffffff1916827bffffffffffffffffffffffffffffffffffffffffffffffffffffffff191614806104b457507f5b5e139f000000000000000000000000000000000000000000000000000000007bffffffffffffffffffffffffffffffffffffffffffffffffffffffff1916827bffffffffffffffffffffffffffffffffffffffffffffffffffffffff1916145b806104c457506104c382610c5a565b5b9050919050565b6060600080546104da906123c0565b80601f0160208091040260200160405190810160405280929190818152602001828054610506906123c0565b80156105535780601f1061052857610100808354040283529160200191610553565b820191906000526020600020905b81548152906001019060200180831161053657829003601f168201915b5050505050905090565b600061056882610cc4565b6105a7576040517f08c379a000000000000000000000000000000000000000000000000000000000815260040161059e906120db565b60405180910390fd5b6004600083815260200190815260200160002060009054906101000a900473ffffffffffffffffffffffffffffffffffffffff169050919050565b60006105ed8261087e565b90508073ffffffffffffffffffffffffffffffffffffffff168373ffffffffffffffffffffffffffffffffffffffff16141561065e576040517f08c379a00000000000000000000000000000000000000000000000000000000081526004016106559061215b565b60405180910390fd5b8073ffffffffffffffffffffffffffffffffffffffff1661067d610d30565b73ffffffffffffffffffffffffffffffffffffffff1614806106ac57506106ab816106a6610d30565b610bc6565b5b6106eb576040517f08c379a00000000000000000000000000000000000000000000000000000000081526004016106e29061205b565b60405180910390fd5b6106f58383610d38565b505050565b60075481565b600854811015610745576040517f08c379a000000000000000000000000000000000000000000000000000000000815260040161073c90611fdb565b60405180910390fd5b6006544210610789576040517f08c379a00000000000000000000000000000000000000000000000000000000081526004016107809061213b565b60405180910390fd5b60095460075411156107d0576040517f08c379a00000000000000000000000000000000000000000000000000000000081526004016107c7906120fb565b60405180910390fd5b6107da3383610df1565b6001600760008282546107ed919061224f565b925050819055505050565b60065481565b61080f610809610d30565b82610fcb565b61084e576040517f08c379a00000000000000000000000000000000000000000000000000000000081526004016108459061217b565b60405180910390fd5b6108598383836110a9565b505050565b61087983838360405180602001604052806000815250610a96565b505050565b6000806002600084815260200190815260200160002060009054906101000a900473ffffffffffffffffffffffffffffffffffffffff169050600073ffffffffffffffffffffffffffffffffffffffff168173ffffffffffffffffffffffffffffffffffffffff161415610927576040517f08c379a000000000000000000000000000000000000000000000000000000000815260040161091e9061209b565b60405180910390fd5b80915050919050565b60085481565b60008073ffffffffffffffffffffffffffffffffffffffff168273ffffffffffffffffffffffffffffffffffffffff1614156109a7576040517f08c379a000000000000000000000000000000000000000000000000000000000815260040161099e9061207b565b60405180910390fd5b600360008373ffffffffffffffffffffffffffffffffffffffff1673ffffffffffffffffffffffffffffffffffffffff168152602001908152602001600020549050919050565b6060600180546109fd906123c0565b80601f0160208091040260200160405190810160405280929190818152602001828054610a29906123c0565b8015610a765780601f10610a4b57610100808354040283529160200191610a76565b820191906000526020600020905b815481529060010190602001808311610a5957829003601f168201915b5050505050905090565b610a92610a8b610d30565b8383611310565b5050565b610aa7610aa1610d30565b83610fcb565b610ae6576040517f08c379a0000000000000000000000000000000000000000000000000000000008152600401610add9061217b565b60405180910390fd5b610af28484848461147d565b50505050565b6000600754600954610b0a91906122d6565b905090565b6060610b1a82610cc4565b610b59576040517f08c379a0000000000000000000000000000000000000000000000000000000008152600401610b509061211b565b60405180910390fd5b6000610b636114d9565b90506000815111610b835760405180602001604052806000815250610bae565b80610b8d846114f0565b604051602001610b9e929190611eb3565b6040516020818303038152906040525b915050919050565b60095481565b6000600954905090565b6000600560008473ffffffffffffffffffffffffffffffffffffffff1673ffffffffffffffffffffffffffffffffffffffff16815260200190815260200160002060008373ffffffffffffffffffffffffffffffffffffffff1673ffffffffffffffffffffffffffffffffffffffff16815260200190815260200160002060009054906101000a900460ff16905092915050565b60007f01ffc9a7000000000000000000000000000000000000000000000000000000007bffffffffffffffffffffffffffffffffffffffffffffffffffffffff1916827bffffffffffffffffffffffffffffffffffffffffffffffffffffffff1916149050919050565b60008073ffffffffffffffffffffffffffffffffffffffff166002600084815260200190815260200160002060009054906101000a900473ffffffffffffffffffffffffffffffffffffffff1673ffffffffffffffffffffffffffffffffffffffff1614159050919050565b600033905090565b816004600083815260200190815260200160002060006101000a81548173ffffffffffffffffffffffffffffffffffffffff021916908373ffffffffffffffffffffffffffffffffffffffff160217905550808273ffffffffffffffffffffffffffffffffffffffff16610dab8361087e565b73ffffffffffffffffffffffffffffffffffffffff167f8c5be1e5ebec7d5bd14f71427d1e84f3dd0314c0f7b2291e5b200ac8c7c3b92560405160405180910390a45050565b600073ffffffffffffffffffffffffffffffffffffffff168273ffffffffffffffffffffffffffffffffffffffff161415610e61576040517f08c379a0000000000000000000000000000000000000000000000000000000008152600401610e58906120bb565b60405180910390fd5b610e6a81610cc4565b15610eaa576040517f08c379a0000000000000000000000000000000000000000000000000000000008152600401610ea190611fbb565b60405180910390fd5b610eb66000838361169d565b6001600360008473ffffffffffffffffffffffffffffffffffffffff1673ffffffffffffffffffffffffffffffffffffffff1681526020019081526020016000206000828254610f06919061224f565b92505081905550816002600083815260200190815260200160002060006101000a81548173ffffffffffffffffffffffffffffffffffffffff021916908373ffffffffffffffffffffffffffffffffffffffff160217905550808273ffffffffffffffffffffffffffffffffffffffff16600073ffffffffffffffffffffffffffffffffffffffff167fddf252ad1be2c89b69c2b068fc378daa952ba7f163c4a11628f55a4df523b3ef60405160405180910390a4610fc7600083836116a2565b5050565b6000610fd682610cc4565b611015576040517f08c379a000000000000000000000000000000000000000000000000000000000815260040161100c9061203b565b60405180910390fd5b60006110208361087e565b90508073ffffffffffffffffffffffffffffffffffffffff168473ffffffffffffffffffffffffffffffffffffffff16148061106257506110618185610bc6565b5b806110a057508373ffffffffffffffffffffffffffffffffffffffff166110888461055d565b73ffffffffffffffffffffffffffffffffffffffff16145b91505092915050565b8273ffffffffffffffffffffffffffffffffffffffff166110c98261087e565b73ffffffffffffffffffffffffffffffffffffffff161461111f576040517f08c379a000000000000000000000000000000000000000000000000000000000815260040161111690611f9b565b60405180910390fd5b600073ffffffffffffffffffffffffffffffffffffffff168273ffffffffffffffffffffffffffffffffffffffff16141561118f576040517f08c379a000000000000000000000000000000000000000000000000000000000815260040161118690611ffb565b60405180910390fd5b61119a83838361169d565b6111a5600082610d38565b6001600360008573ffffffffffffffffffffffffffffffffffffffff1673ffffffffffffffffffffffffffffffffffffffff16815260200190815260200160002060008282546111f591906122d6565b925050819055506001600360008473ffffffffffffffffffffffffffffffffffffffff1673ffffffffffffffffffffffffffffffffffffffff168152602001908152602001600020600082825461124c919061224f565b92505081905550816002600083815260200190815260200160002060006101000a81548173ffffffffffffffffffffffffffffffffffffffff021916908373ffffffffffffffffffffffffffffffffffffffff160217905550808273ffffffffffffffffffffffffffffffffffffffff168473ffffffffffffffffffffffffffffffffffffffff167fddf252ad1be2c89b69c2b068fc378daa952ba7f163c4a11628f55a4df523b3ef60405160405180910390a461130b8383836116a2565b505050565b8173ffffffffffffffffffffffffffffffffffffffff168373ffffffffffffffffffffffffffffffffffffffff16141561137f576040517f08c379a00000000000000000000000000000000000000000000000000000000081526004016113769061201b565b60405180910390fd5b80600560008573ffffffffffffffffffffffffffffffffffffffff1673ffffffffffffffffffffffffffffffffffffffff16815260200190815260200160002060008473ffffffffffffffffffffffffffffffffffffffff1673ffffffffffffffffffffffffffffffffffffffff16815260200190815260200160002060006101000a81548160ff0219169083151502179055508173ffffffffffffffffffffffffffffffffffffffff168373ffffffffffffffffffffffffffffffffffffffff167f17307eab39ab6107e8899845ad3d59bd9653f200f220920489ca2b5937696c31836040516114709190611f3e565b60405180910390a3505050565b6114888484846110a9565b611494848484846116a7565b6114d3576040517f08c379a00000000000000000000000000000000000000000000000000000000081526004016114ca90611f7b565b60405180910390fd5b50505050565b606060405180602001604052806000815250905090565b60606000821415611538576040518060400160405280600181526020017f30000000000000000000000000000000000000000000000000000000000000008152509050611698565b600082905060005b6000821461156a57808061155390612423565b915050600a8261156391906122a5565b9150611540565b60008167ffffffffffffffff8111156115ac577f4e487b7100000000000000000000000000000000000000000000000000000000600052604160045260246000fd5b6040519080825280601f01601f1916602001820160405280156115de5781602001600182028036833780820191505090505b5090505b60008514611691576001826115f791906122d6565b9150600a85611606919061246c565b6030611612919061224f565b60f81b81838151811061164e577f4e487b7100000000000000000000000000000000000000000000000000000000600052603260045260246000fd5b60200101907effffffffffffffffffffffffffffffffffffffffffffffffffffffffffffff1916908160001a905350600a8561168a91906122a5565b94506115e2565b8093505050505b919050565b505050565b505050565b60006116c88473ffffffffffffffffffffffffffffffffffffffff1661183e565b15611831578373ffffffffffffffffffffffffffffffffffffffff1663150b7a026116f1610d30565b8786866040518563ffffffff1660e01b81526004016117139493929190611ef2565b602060405180830381600087803b15801561172d57600080fd5b505af192505050801561175e57506040513d601f19601f8201168201806040525081019061175b9190611b02565b60015b6117e1573d806000811461178e576040519150601f19603f3d011682016040523d82523d6000602084013e611793565b606091505b506000815114156117d9576040517f08c379a00000000000000000000000000000000000000000000000000000000081526004016117d090611f7b565b60405180910390fd5b805181602001fd5b63150b7a0260e01b7bffffffffffffffffffffffffffffffffffffffffffffffffffffffff1916817bffffffffffffffffffffffffffffffffffffffffffffffffffffffff191614915050611836565b600190505b949350505050565b6000808273ffffffffffffffffffffffffffffffffffffffff163b119050919050565b600061187461186f846121db565b6121b6565b90508281526020810184848401111561188c57600080fd5b61189784828561237e565b509392505050565b6000813590506118ae816129c5565b92915050565b6000813590506118c3816129dc565b92915050565b6000813590506118d8816129f3565b92915050565b6000815190506118ed816129f3565b92915050565b600082601f83011261190457600080fd5b8135611914848260208601611861565b91505092915050565b60008135905061192c81612a0a565b92915050565b60006020828403121561194457600080fd5b60006119528482850161189f565b91505092915050565b6000806040838503121561196e57600080fd5b600061197c8582860161189f565b925050602061198d8582860161189f565b9150509250929050565b6000806000606084860312156119ac57600080fd5b60006119ba8682870161189f565b93505060206119cb8682870161189f565b92505060406119dc8682870161191d565b9150509250925092565b600080600080608085870312156119fc57600080fd5b6000611a0a8782880161189f565b9450506020611a1b8782880161189f565b9350506040611a2c8782880161191d565b925050606085013567ffffffffffffffff811115611a4957600080fd5b611a55878288016118f3565b91505092959194509250565b60008060408385031215611a7457600080fd5b6000611a828582860161189f565b9250506020611a93858286016118b4565b9150509250929050565b60008060408385031215611ab057600080fd5b6000611abe8582860161189f565b9250506020611acf8582860161191d565b9150509250929050565b600060208284031215611aeb57600080fd5b6000611af9848285016118c9565b91505092915050565b600060208284031215611b1457600080fd5b6000611b22848285016118de565b91505092915050565b600060208284031215611b3d57600080fd5b6000611b4b8482850161191d565b91505092915050565b60008060408385031215611b6757600080fd5b6000611b758582860161191d565b9250506020611b868582860161191d565b9150509250929050565b611b998161230a565b82525050565b611ba88161231c565b82525050565b6000611bb98261220c565b611bc38185612222565b9350611bd381856020860161238d565b611bdc81612559565b840191505092915050565b6000611bf282612217565b611bfc8185612233565b9350611c0c81856020860161238d565b611c1581612559565b840191505092915050565b6000611c2b82612217565b611c358185612244565b9350611c4581856020860161238d565b80840191505092915050565b6000611c5e603283612233565b9150611c698261256a565b604082019050919050565b6000611c81602583612233565b9150611c8c826125b9565b604082019050919050565b6000611ca4601c83612233565b9150611caf82612608565b602082019050919050565b6000611cc7601283612233565b9150611cd282612631565b602082019050919050565b6000611cea602483612233565b9150611cf58261265a565b604082019050919050565b6000611d0d601983612233565b9150611d18826126a9565b602082019050919050565b6000611d30602c83612233565b9150611d3b826126d2565b604082019050919050565b6000611d53603883612233565b9150611d5e82612721565b604082019050919050565b6000611d76602a83612233565b9150611d8182612770565b604082019050919050565b6000611d99602983612233565b9150611da4826127bf565b604082019050919050565b6000611dbc602083612233565b9150611dc78261280e565b602082019050919050565b6000611ddf602c83612233565b9150611dea82612837565b604082019050919050565b6000611e02601383612233565b9150611e0d82612886565b602082019050919050565b6000611e25602f83612233565b9150611e30826128af565b604082019050919050565b6000611e48601c83612233565b9150611e53826128fe565b602082019050919050565b6000611e6b602183612233565b9150611e7682612927565b604082019050919050565b6000611e8e603183612233565b9150611e9982612976565b604082019050919050565b611ead81612374565b82525050565b6000611ebf8285611c20565b9150611ecb8284611c20565b91508190509392505050565b6000602082019050611eec6000830184611b90565b92915050565b6000608082019050611f076000830187611b90565b611f146020830186611b90565b611f216040830185611ea4565b8181036060830152611f338184611bae565b905095945050505050565b6000602082019050611f536000830184611b9f565b92915050565b60006020820190508181036000830152611f738184611be7565b905092915050565b60006020820190508181036000830152611f9481611c51565b9050919050565b60006020820190508181036000830152611fb481611c74565b9050919050565b60006020820190508181036000830152611fd481611c97565b9050919050565b60006020820190508181036000830152611ff481611cba565b9050919050565b6000602082019050818103600083015261201481611cdd565b9050919050565b6000602082019050818103600083015261203481611d00565b9050919050565b6000602082019050818103600083015261205481611d23565b9050919050565b6000602082019050818103600083015261207481611d46565b9050919050565b6000602082019050818103600083015261209481611d69565b9050919050565b600060208201905081810360008301526120b481611d8c565b9050919050565b600060208201905081810360008301526120d481611daf565b9050919050565b600060208201905081810360008301526120f481611dd2565b9050919050565b6000602082019050818103600083015261211481611df5565b9050919050565b6000602082019050818103600083015261213481611e18565b9050919050565b6000602082019050818103600083015261215481611e3b565b9050919050565b6000602082019050818103600083015261217481611e5e565b9050919050565b6000602082019050818103600083015261219481611e81565b9050919050565b60006020820190506121b06000830184611ea4565b92915050565b60006121c06121d1565b90506121cc82826123f2565b919050565b6000604051905090565b600067ffffffffffffffff8211156121f6576121f561252a565b5b6121ff82612559565b9050602081019050919050565b600081519050919050565b600081519050919050565b600082825260208201905092915050565b600082825260208201905092915050565b600081905092915050565b600061225a82612374565b915061226583612374565b9250827fffffffffffffffffffffffffffffffffffffffffffffffffffffffffffffffff0382111561229a5761229961249d565b5b828201905092915050565b60006122b082612374565b91506122bb83612374565b9250826122cb576122ca6124cc565b5b828204905092915050565b60006122e182612374565b91506122ec83612374565b9250828210156122ff576122fe61249d565b5b828203905092915050565b600061231582612354565b9050919050565b60008115159050919050565b60007fffffffff0000000000000000000000000000000000000000000000000000000082169050919050565b600073ffffffffffffffffffffffffffffffffffffffff82169050919050565b6000819050919050565b82818337600083830152505050565b60005b838110156123ab578082015181840152602081019050612390565b838111156123ba576000848401525b50505050565b600060028204905060018216806123d857607f821691505b602082108114156123ec576123eb6124fb565b5b50919050565b6123fb82612559565b810181811067ffffffffffffffff8211171561241a5761241961252a565b5b80604052505050565b600061242e82612374565b91507fffffffffffffffffffffffffffffffffffffffffffffffffffffffffffffffff8214156124615761246061249d565b5b600182019050919050565b600061247782612374565b915061248283612374565b925082612492576124916124cc565b5b828206905092915050565b7f4e487b7100000000000000000000000000000000000000000000000000000000600052601160045260246000fd5b7f4e487b7100000000000000000000000000000000000000000000000000000000600052601260045260246000fd5b7f4e487b7100000000000000000000000000000000000000000000000000000000600052602260045260246000fd5b7f4e487b7100000000000000000000000000000000000000000000000000000000600052604160045260246000fd5b6000601f19601f8301169050919050565b7f4552433732313a207472616e7366657220746f206e6f6e20455243373231526560008201527f63656976657220696d706c656d656e7465720000000000000000000000000000602082015250565b7f4552433732313a207472616e736665722066726f6d20696e636f72726563742060008201527f6f776e6572000000000000000000000000000000000000000000000000000000602082015250565b7f4552433732313a20746f6b656e20616c7265616479206d696e74656400000000600082015250565b7f496e76616c6964206d696e742070726963650000000000000000000000000000600082015250565b7f4552433732313a207472616e7366657220746f20746865207a65726f2061646460008201527f7265737300000000000000000000000000000000000000000000000000000000602082015250565b7f4552433732313a20617070726f766520746f2063616c6c657200000000000000600082015250565b7f4552433732313a206f70657261746f7220717565727920666f72206e6f6e657860008201527f697374656e7420746f6b656e0000000000000000000000000000000000000000602082015250565b7f4552433732313a20617070726f76652063616c6c6572206973206e6f74206f7760008201527f6e6572206e6f7220617070726f76656420666f7220616c6c0000000000000000602082015250565b7f4552433732313a2062616c616e636520717565727920666f7220746865207a6560008201527f726f206164647265737300000000000000000000000000000000000000000000602082015250565b7f4552433732313a206f776e657220717565727920666f72206e6f6e657869737460008201527f656e7420746f6b656e0000000000000000000000000000000000000000000000602082015250565b7f4552433732313a206d696e7420746f20746865207a65726f2061646472657373600082015250565b7f4552433732313a20617070726f76656420717565727920666f72206e6f6e657860008201527f697374656e7420746f6b656e0000000000000000000000000000000000000000602082015250565b7f496e73756666696369656e7420737570706c7900000000000000000000000000600082015250565b7f4552433732314d657461646174613a2055524920717565727920666f72206e6f60008201527f6e6578697374656e7420746f6b656e0000000000000000000000000000000000602082015250565b7f5468652061756374696f6e206e6f74207374617274696e672079657400000000600082015250565b7f4552433732313a20617070726f76616c20746f2063757272656e74206f776e6560008201527f7200000000000000000000000000000000000000000000000000000000000000602082015250565b7f4552433732313a207472616e736665722063616c6c6572206973206e6f74206f60008201527f776e6572206e6f7220617070726f766564000000000000000000000000000000602082015250565b6129ce8161230a565b81146129d957600080fd5b50565b6129e58161231c565b81146129f057600080fd5b50565b6129fc81612328565b8114612a0757600080fd5b50565b612a1381612374565b8114612a1e57600080fd5b5056fea2646970667358221220a4fee4d355fe9b4c67782287b707423cae77f5c85b51f9c23100399da4493fee64736f6c63430008040033",
  "linkReferences": {},
  "deployedLinkReferences": {}
}